:1000000009C016C015C014C013C012C011C010C062
:100010000FC00EC011241FBECFE9CDBF20E0A0E667
:10002000B0E001C01D92A636B207E1F702D05DC074
:10003000E7CF80E886BD16BCBB9A80E18093610063
:1000400010926000109262008093640080936300BD
:1000500080936500D1E0C0E010E01C1739F063E048
:1000600070E080E690E03FD01F5FF7CF10E0212FD7
:1000700030E080E190E08C1B9109281739073CF4AF
:1000800063E070E083E690E02ED01F5FF0CF2FEFAB
:1000900086E791E0215080409040E1F700C00000E9
:1000A000CD0F8C2F8F7EC1F6D195D6CF38B3242FAC
:1000B0002095232338B3342B4FB7F894FC01680FF5
:1000C000791FE617F70769F0819198E038BB0000C7
:1000D00087FF28BB880F00C000C028BB9A95B1F7E6
:0E00E000F0CF4FBF089548E0E1CFF894FFCF76
:00000001FF
