:1000000009C021C020C01FC01EC01DC01CC01BC015
:100010001AC019C011241FBECFE9CDBF20E0A4E64D
:10002000B0E001C01D92A736B207E1F710E0A0E6EC
:10003000B0E0ECEAF3E002C005900D92A436B107FF
:10004000D9F702D0B1C1DCCF80E886BD16BCBB9A1F
:10005000C0E01FEF02E301110BC01F3F49F4DFD0E6
:100060006AE070E075D0182F02E38A3078F502C09C
:100070001A3050F5CC23F9F0C13009F1C230A9F0A3
:10008000C330E9F0C430C9F0C53089F0C630A9F0FA
:10009000C73079F0C93079F0CA3089F0CB3069F0D7
:1000A000CC3069F0CE3069F402C0DCEF0CC0D4E093
:1000B0000AC0D1E008C0DFEF06C0D2E004C0DEEF26
:1000C00002C0C0E01FEFCF5F1F3F11F401501FEFD0
:1000D000F12CF11611F08AE003C0809165008D0FBC
:1000E00080936500809364008093660063E070E015
:1000F00084E690E02BD0F3942AE0F212EACF8FEF5F
:1001000096E721E0815090402040E1F700C00000D8
:10011000A2CF38B3242F2095232338B3342B4FB7E5
:10012000F894FC01680F791FE617F70769F08191D1
:1001300098E038BB000087FF28BB880F00C000C0D4
:1001400028BB9A95B1F7F0CF4FBF089548E0E1CFB3
:1001500097FB072E16F4009406D077FD08D00BD03D
:1001600007FC05D03EF4909581959F4F08957095BA
:1001700061957F4F0895AA1BBB1B51E107C0AA1FC1
:10018000BB1FA617B70710F0A61BB70B881F991F38
:100190005A95A9F780959095BC01CD010895A0E0EE
:1001A000B0E0E4EDF0E089C0EC01688179818A81FA
:1001B0009B81611571058105910521F464E279ED5A
:1001C0008BE597E02DE133EF41E050E037D0490176
:1001D0005A0127EA31E440E050E04CD069017A014D
:1001E000C501B4012CEE34EF4FEF5FEF43D089012E
:1001F0009A01D701C601800F911FA21FB31FB7FF3D
:1002000003C00197A109B04888839983AA83BB835F
:100210009F77CDB7DEB7ECE067C0C1DF089580E619
:1002200090E0BDDF0895A0E0B0E08093600090937F
:100230006100A0936200B09363000895052E97FBC0
:1002400016F400940FD057FD05D05ED007FC02D005
:1002500046F408C050954095309521953F4F4F4F3B
:100260005F4F089590958095709561957F4F8F4F62
:100270009F4F089568940013E894A0E0B0E0E2E492
:10028000F1E01DC0EFEFE7F959016A015E23550F58
:10029000EE08FE2C87019B01AC019E23990F660B93
:1002A000762FCB0153D0CDB7DD27EAE01FC02F92C8
:1002B0003F924F925F926F927F928F929F92AF92F6
:1002C000BF92CF92DF92EF92FF920F931F93CF9343
:1002D000DF93CDB7CA1BCDBFDD2709942A883988A3
:1002E00048885F846E847D848C849B84AA84B984CE
:1002F000C884DF80EE80FD800C811B81AA81D981BA
:10030000CE0FCDBFCA2F0895A1E21A2EAA1BBB1B88
:10031000FD010DC0AA1FBB1FEE1FFF1FA217B307D1
:10032000E407F50720F0A21BB30BE40BF50B661FE7
:10033000771F881F991F1A9469F7609570958095AB
:1003400090959B01AC01BD01CF010895DF93CF9340
:100350009F92A0E49A2E0024D001E001F0011695AE
:100360000795F794E794D794C794B794A79448F463
:100370001068A20FB31FC41FD51FE61FF71F081E6A
:10038000191E220F331F441F551F661F771F881F1A
:10039000991F9A9421F79D01AE01BF01C00111245C
:0C03A0009F90CF91DF910895F894FFCF5B
:0403AC00010000004C
:00000001FF
