:1000000009C016C015C014C013C012C011C010C062
:100010000FC00EC011241FBECFE9CDBF20E0A0E667
:10002000B0E001C01D92AE37B207E1F702D041C087
:10003000E7CF80E886BD16BCBB9AE2E6F0E0DF01C0
:10004000119780E18C9311978C938083339620E0F5
:10005000E038F207A1F76EE170E080E690E027D08B
:100060008FEF96E721E0815090402040E1F700C0FB
:100070000000F1CF38B3242F2095232338B3342B3D
:100080004FB7F894FC01680F791FE617F70769F07E
:10009000819198E038BB000087FF28BB880F00C023
:1000A00000C028BB9A95B1F7F0CF4FBF089548E044
:0600B000E1CFF894FFCF40
:00000001FF
